S0180000476363426F61726450726F6A656374312E737265630F
S113000060200020C90B0000C50B0000C50B0000D8
S113001000000000000000000000000000000000DC
S1130020000000000000000000000000C50B0000FC
S11300300000000000000000C50B0000C50B00001C
S1130040C50B0000C50B0000C50B0000C50B00006C
S1130050C50B0000C50B0000C50B0000C50B00005C
S1130060C50B00006105000071050000810500005A
S113007091050000A1050000B1050000C50B0000BA
S1130080C50B0000C50B0000C50B0000C50B00002C
S1130090C50B00000000000000000000C50B0000BC
S11300A0C50B0000C50B0000C50B0000C50B00000C
S11300B00000000010B5064C2378002B07D1054B37
S11300C0002B02D0044800E000BF0123237010BDC0
S11300D00C0000200000000028190000084B10B597
S11300E0002B03D00749084800E000BF0748036815
S11300F0002B00D110BD064B002BFBD09847F9E72D
S11301000000000010000020281900002819000039
S11301100000000010B5034B984783001818C30073
S1130120181A10BD550E000030B583B001AC012380
S113013063700022A270237021000220104DA84792
S113014021000320A84721000420A84721000520FE
S1130150A84721000620A84721000720A84721001E
S11301600820A84721000920A84721000B20A84700
S113017021000A20A84721002A20A84703B030BD47
S1130180C105000070B5C30730D50422284B9A611D
S113019083072FD50822264B9A6143072ED51022B8
S11301A0234B9A6103072DD52022214B9A61C30664
S11301B02CD540221E4B9A6183062BD580221C4BE2
S11301C09A6143062AD580225200194B9A61C009CC
S11301D029D180229200164B5A61154C8025ED00DE
S11301E0A5610120134B9847656170BD0422104B33
S11301F05A61CDE708220E4B5A61CEE710220C4B10
S11302005A61CFE720220A4B5A61D0E74022084BBB
S11302105A61D1E78022064B5A61D2E7802252000C
S1130220034B5A61D3E780229200014B9A61D4E7D1
S1130230004400410905000070B5040001200A4D86
S1130240A847200EA847200CC0B2A847200AC0B275
S1130250A847E0B2A847054C80252D01A5610120DF
S1130260034B9847656170BD85010000004400415F
S11302700905000070B5C30738D5802212022F4B40
S11302809A61830737D5802252022C4B9A61430727
S113029036D580229202294B9A61030735D58022F4
S11302A0D202264B9A61C30634D580221203234B13
S11302B09A61830633D580225203204B9A61430608
S11302C032D5802292031D4B9A61C00931D180221C
S11302D0D2031A4B5A61194D80263604AE610220AE
S11302E0174CA0476E610220A04770BD8022120205
S11302F0124B5A61C5E780225202104B5A61C6E77D
S1130300802292020D4B5A61C7E78022D2020B4B26
S11303105A61C8E780221203084B5A61C9E7802258
S11303205203064B5A61CAE780229203034B5A6177
S1130330CBE78022D203014B9A61CCE70044004111
S113034035050000F8B5C3073CD580221202314BB5
S11303509A6183073BD5802252022E4B9A61430750
S11303603AD5802292022B4B9A61030739D5802219
S1130370D202284B9A61C30638D580221203254B3A
S11303809A61830637D580225203224B9A61430631
S113039036D5802292031F4B9A61C00935D1802241
S11303A0D2031C4B5A611B4C80273F04A761802653
S11303B0B604A6610220184DA84767616661022051
S11303C0A847F8BD80221202124B5A61C1E780226D
S11303D05202104B5A61C2E7802292020D4B5A61BD
S11303E0C3E78022D2020B4B5A61C4E78022120376
S11303F0084B5A61C5E780225203064B5A61C6E78F
S113040080229203034B5A61C7E78022D203014B37
S11304109A61C8E7004400413505000070B5040046
S11304200078002805D0034DA8470134207800281F
S1130430FAD170BD4503000030B583B001AC01238F
S113044063700022A270237021000F20104DA84772
S113045021001020A84721001120A84721001220C4
S1130460A84721001320A84721001420A8472100F1
S11304701520A84721001620A84721001720A847C7
S113048021001820A84721001920A84703B030BD37
S1130490C105000070B5094B98473820084CA047A7
S11304A00620084DA8470E20A0470620A847012093
S11304B0A0470620A8478020A04770BD390400004B
S11304C0750200003505000070B50020084B984700
S11304D00500084CFA218900A047074B186007491A
S11304E02800A047064B18600522064B1A6070BD11
S11304F0850900003D0D00000000002040420F006F
S11305000400002010E000E030B5084B1C68084AE5
S1130510002580214902013807D3002CFBD0546008
S1130520956013680B42FCD0F5E730BD0400002051
S113053010E000E030B5084B1C68084A0025802113
S11305404902013807D3002CFBD05460956013682E
S11305500B42FCD0F5E730BD0000002010E000E0C5
S113056010B5024B1B680020984710BD28000020DE
S113057010B5024B5B680120984710BD280000208D
S113058010B5024B9B680220984710BD280000203C
S113059010B5024BDB680320984710BD28000020EB
S11305A010B5024B1B690420984710BD2800002099
S11305B010B5024B5B690520984710BD2800002048
S11305C000B583B001AB80221A700A785A704A7859
S11305D09A708A78DA701900014B984703B000BD0D
S11305E0650B0000704700000C4B1B68002B06D104
S11305F0EFF31083002B07D00022094B1A70074A2F
S1130600136801331360704772B6BFF35F8F002223
S1130610044B1A700132024B1A70F0E740000020BC
S11306204400002008000020084B1A68013A1A60B0
S11306301B68002B09D1064B1B78002B05D0012227
S1130640044B1A70BFF35F8F62B6704740000020FE
S1130650440000200800002010B5082803D88000BA
S11306601B4B1B589F46002030E01A4B18692DE0A5
S1130670194B1B6A9B059B0F1848D84026E0154B65
S1130680586923E0134B1B6800209B071ED51249B1
S11306901022CB681A42FCD00E4B1B685B0701D4B6
S11306A00F4813E000200F4B98470A4B9B681B042C
S11306B01B0C58430AE05023074AD35C00205B0715
S11306C004D5044BD86801E08020000210BDC04668
S11306D0A8180000480000200008004000127A001A
S11306E0006CDC02890A000070B50C490B6A0478BE
S11306F0857840780122104080014026B3430343AB
S11307002A40D20180208343134303222240120251
S11307100348034013430B6270BDC0460008004009
S1130720FFFCFFFF082803D88000254B1B589F4679
S1130730172044E0234A136A02210B43136200206A
S11307403DE0204A936902210B439361002036E087
S11307501C4A138A02210B43138200202FE0194AFA
S1130760938A02210B439382002028E016490B68E8
S1130770022213430B60134B9A8419000E32CB6888
S11307801A42FCD0104A91680E4BD96252689A62A0
S113079000229A8419001032CB681A42FCD00A4B0A
S11307A01B689BB2074A9384002008E00549442251
S11307B08B5C022003438B54002000E00020704730
S11307C0CC180000000800404800002030B585B077
S11307D0C222D2001A4B9A601A4A53681E218B43D4
S11307E0536001236A4613700024174DE0B2694632
S11307F0A8470134252CF9D103A80024447001250D
S113080085700470114B98470620114B9847114B83
S11308109847114B1C725C729C72DC7201956B469A
S11308205C7006236A461370147254726946002081
S11308300A4B984700200A4B984705B030BDC04684
S113084000080040004000416D0A0000E906000075
S11308502507000065080000000400408908000026
S113086041090000064A936908210B439361012260
S1130870044B1A7019000B781342FCD17047C04620
S113088000040040000C004070B5060004000D7820
S11308902D0205434B78002B02D08023DB021D433D
S11308A04B7A002B02D080231B031D434868012888
S11308B010D9431E184234D1022830D90223002211
S11308C001325B009842FBD81202324314008023A9
S11308D05B031D430B7A002B02D080239B031D4333
S11308E0134A53785BB2002BFBDB124B9847124B35
S11308F01E700F4A53785BB2002BFBDB0C4B9C60E1
S11309001A0053785BB2002BFBDB094A5368802141
S113091049020B401D435560084B984770BD0022A7
S1130920D2E70402344380239B021D43D2E7C0462E
S1130930000C0040E9050000080C004029060000F6
S113094010B504000B4A53785BB2002BFBDB0A4B57
S113095098470A4B1C70074A53785BB2002BFBDBA9
S1130960044A516880235B020B435360044B98474D
S113097010BDC046000C0040E9050000040C004016
S11309802906000070B504001A4A53785BB2002BA4
S1130990FBDB194B9847194B1C70164A53785BB212
S11309A0002BFBDB134E7068C004C00E144B984739
S11309B00500124B1C707668F602F60F114B1C7082
S11309C00C4A53785BB2002BFBDB0A4B9C68240275
S11309D0240C0D4B9847002E07D1012C07D9210078
S11309E028000A4B9847050001E00134E54028003F
S11309F070BDC046000C0040E9050000040C004036
S1130A0059060000080C0040290600003D0D0000B6
S1130A1010B504000F4B98470F4B1C700F4A5388B6
S1130A201B05180F53880E490B40538053880D49FA
S1130A300B40538011008022D2014B881342FCD119
S1130A4006494A8803020648024013434B80064B7A
S1130A50984710BDE9050000020C0040000C00405E
S1130A60FFF0FFFFFFBFFFFF2906000010B50C7861
S1130A7024020443024B9847A4B2024B5C8010BD8D
S1130A80110A0000000C004010B50400064B984702
S1130A90064B1C70064B5C882405240F054B9847B5
S1130AA02000054B984710BDE9050000020C0040EA
S1130AB0000C0040290600008509000030B5D378F9
S1130AC0002B35D11378802B29D01B068024640297
S1130AD0234354780225AC4306D19478002C20D1CA
S1130AE08024A402234341605478013C012C1CD986
S1130AF00D042D0CA024E4052C431C4384620D0C2E
S1130B00D02424062C431C438462D478002C22D1A4
S1130B105B031CD59378012B1ED0416117E00023A1
S1130B20D7E7C024E4022343DDE70D4C2340DFE78D
S1130B3041600C04240CA023DB05234383620C0CCA
S1130B40D0231B0623438362D378002B03D153782D
S1130B50013B012B02D930BD8161F8E78160FAE7DE
S1130B60FFFFFBFF10B50A00C1090023002904D1CF
S1130B704309DB0105498C4663441F2420400121BD
S1130B8081401800024B984710BDC0460044004104
S1130B90BD0A00007047000010B5054B9847054B8F
S1130BA09847054B9847054B9847054B984710BD08
S1130BB0CD070000E5050000950B0000950B000033
S1130BC0950B0000FEE70000F8B52A4A2A4B9A422A
S1130BD011D01A00294B9A420DD2294A03339B1A89
S1130BE09B0801339B000022234822498C588450DF
S1130BF004329A42FAD1234A234B9A420AD2D3436B
S1130C0021495B1803218B4304339B18002102C242
S1130C109342FCD11D4AFF211D4B8B439360FD3948
S1130C2090235B001B4AD1501B4AD3780325AB4366
S1130C3002242343D370D3780C27BB4308263343C1
S1130C40D370164B987B3022904320221043987324
S1130C50997BB943314399739A7BAA4322439A738C
S1130C600F4A536880210B4353600E4B98470E4B39
S1130C709847FEE728190000000000200C0000201F
S1130C80040000200C0000206000002000ED00E0C3
S1130C900000000000700041005000410048004185
S1130CA00040004161180000AD0C0000F8B5CE46CC
S1130CB0474680B5134B9847134B9847134B9847B7
S1130CC01420134B9847134B98478020124DA84784
S1130CD01248134CA047C020A8471248A047124D01
S1130CE0124C0B4B9946124B9846124FFA20C847A8
S1130CF06E42641B2000C047B8470F4B984735002D
S1130D00F4E7C046990B0000C90400002901000063
S1130D10350500009504000075020000F01800007D
S1130D201D040000F8180000A086010080F93703B4
S1130D3025150000150100003902000000224308B7
S1130D408B4274D303098B425FD3030A8B4244D38F
S1130D50030B8B4228D3030C8B420DD3FF220902D1
S1130D6012BA030C8B4202D31212090265D0030B90
S1130D708B4219D300E0090AC30B8B4201D3CB0386
S1130D80C01A5241830B8B4201D38B03C01A5241C8
S1130D90430B8B4201D34B03C01A5241030B8B42CA
S1130DA001D30B03C01A5241C30A8B4201D3CB02B5
S1130DB0C01A5241830A8B4201D38B02C01A52419A
S1130DC0430A8B4201D34B02C01A5241030A8B429D
S1130DD001D30B02C01A5241CDD2C3098B4201D3B5
S1130DE0CB01C01A524183098B4201D38B01C01A33
S1130DF0524143098B4201D34B01C01A52410309AA
S1130E008B4201D30B01C01A5241C3088B4201D358
S1130E10CB00C01A524183088B4201D38B00C01A05
S1130E20524143088B4201D34B00C01A5241411A2C
S1130E3000D20146524110467047FFE701B5002039
S1130E4000F006F802BDC0460029F7D076E77047E7
S1130E507047C04670B500220C4B04000D0000F032
S1130E60D7FB002804D12000290000F027FB70BD27
S1130E70064B00222000290000F00AF800F01EFBB7
S1130E8080231B069C466044F1E7C0460000E04115
S1130E90F0B54646D6464F460C03C0B5CD0F4E00BE
S1130EA0610A440F0C43C1005800400D84468A4631
S1130EB00F001903500F490A0143C648760DA8468E
S1130EC0DB0FD200844500D1D8E001204340AB427F
S1130ED000D1A6E06046351A002D00DC05E10028AB
S1130EE010D10B00134300D1D7E06B1E002B00D0B0
S1130EF04BE153469F1ABA458041641A4042241A72
S1130F0001261EE0B34B9E4248D080231B041943A4
S1130F10382D00DD19E11F2D00DD4CE120230F00E9
S1130F205B1B10009A409F40E840531E9A41E940E1
S1130F30074317435346DF1B611ABA45A441644271
S1130F400C1B230200D4C5E06402650A002D00D105
S1130F50F6E0280000F066FB0300083B1F2B00DDD1
S1130F60E9E020223C00D21A9D40D4409F40254312
S1130F709E4200DDDBE09E1B731C1F2B00DD0AE19B
S1130F8020223800D21A290097402C009140D840E2
S1130F907A1E9741DC40002601430F437B0709D0AA
S1130FA00F233B40042B05D03B1DBB42BF417F4276
S1130FB0E4191F00230225D5864B01369E4200D139
S1130FC0AFE0854B01251C4043466207FF086402DD
S1130FD076051743240B760D1D4000212403230BB3
S1130FE00C0D7E4A24051C431440330523435B0047
S1130FF0ED075B082B43380019001CBC904699464A
S1131000A246F0BD012543466207FF081743E408E2
S11310101D40704B9E4236D024037605240B760D7A
S1131020DBE76346F31A002B00DC94E060460028FB
S113103035D068488642B1D080273F043943382BE5
S113104000DCFDE00A43170000217A1E9741574453
S113105057458041091944420C1923023AD55D4B86
S113106001369E4200D14BE101225B4B1C407B08C0
S113107017401F43E207174364088FE70800104333
S113108000D024E721E723003B4300D1B9E18022CB
S1131090120314432403240B9FE72E007EE7080069
S11310A0104300D1CAE0581E8446002800D0E7E06F
S11310B052445245804164184042241817000126C6
S11310C0230207D50226CFE764462C4300D1B3E1BF
S11310D02C0067467B0700D062E76307FF081F43C5
S11310E001254346E4081D4093E7002D78D1751C83
S11310F06D056D0D012D00DCF2E05046801A82452D
S1131100BF41651A7F42ED1B8446280200D48CE05F
S11311105046171ABA4292410C1B5542651B984619
S113112014E70125434600241D40002755E72A4CB7
S1131130F61A2C4032E73D0028388540002717E78F
S1131140380000F06FFA203006E70A431700002148
S11311507A1E9741EEE6002B00D0E5E0731C9C4616
S11311605B055B0D012B00DC9FE01A4B9C4500D115
S1131170C5E0524452458041641840422418E707B0
S1131180520817436408664608E71248854200D1AE
S113119085E01D00BCE629001F3EF140202B00D154
S11311A07FE04022D31A9D402F437D1EAF4100248F
S11311B00F4300268EE72B000F00203BDF40202D3D
S11311C071D040235D1BA9400A43511E8A4100216E
S11311D01743AFE6FF070000FFFF7FFFFFFF0F800D
S11311E0002E3ED0B34EB44545D0802636046D4221
S11311F03443382D00DDA8E01F2D00DD1FE120263B
S113120027005046761BB740E84007435046B0409D
S1131210461EB041EC403843171ABA4292410C1BA7
S11312205242A41A664698468BE6644667462C43A7
S113123000D08BE6002500260027EAE61E00ADE676
S11312401F2B60DC2027F81A0F008446874010000B
S1131250D840074360468240501E8241D94017431C
S1131260F5E626005046064305D0ED43002DD3D0C5
S1131270904EB445BDD10C001700664698468DE6E5
S11312808C4883420BD06346D9E6002D00D096E00B
S11312900800104300D1E2E00C0017009846854E88
S11312A07CE6002580E700218EE7230050460343B7
S11312B0002E00D0A8E0002B00D1DEE00B00134389
S11312C000D16BE6524452458041641840422418D0
S11312D01700230200D4FDE6774B66461C405DE60A
S11312E0250050460543002ECFD1002D4FD10C00D0
S11312F0144300D1A0E00C00170098464EE6664661
S11313000024002785E61F000800203FF84007005E
S1131310202B00D18EE04020C31A99400A43511E6D
S11313208A410021174392E6002E14D1260050462C
S1131330064362D0DB43002B5CD18718974292416D
S113134064185242A418664687E650462043441E59
S1131350A041002460E7574EB4454ED080263604A1
S11313605B423443382B00DD7FE01F2B00DD8BE034
S1131370202627005046F61AB740D8400743504667
S1131380B040461EB0410743DC40BF18D6E70D000D
S1131390154300D102E65046801A8245BF41651AC2
S11313A07F42ED1B8446280200D48DE65046171A6E
S11313B0BA4292410C1B5242A41A9846EEE50D0023
S11313C0154300D16BE750466707C00807438020E8
S11313D0E4080003044207D0CD08054204D12C00E0
S11313E09846D70849070F437B0FE4001C43FF00CE
S11313F0304ED3E52F4EB445B4D10C0017006646E9
S1131400CCE500270024E8E5002B39D00B0013437A
S113141000D144E7C008670707438020E4080003BD
S11314200442E1D0CB080342DED1D70849070F4379
S11314301C00D9E7002171E700250027E9E52E000B
S11314402700203EF740202D2FD04026751BAC40AE
S113145050462043441EA04100243843DCE6802447
S113146000252403134E0027D3E5504620430700EC
S1131470781E87410024BF1860E70C0017008DE533
S11314800C0017000B4E89E51E002700203EF74094
S1131490202B0CD04026F31A9C4050462043441E77
S11314A0A04107430024BF1848E70024D0E70024E4
S11314B0F3E7C046FF070000FFFF7FFF30B5134D81
S11314C00A034B00120B5B0DC90F0024AB4210DD65
S11314D00F4CA3420FDC80240E4D64032243ED1A0B
S11314E01F2D0BDD0C48C31ADA405442002900D1E9
S11314F01400200030BD094BCC18FAE7084CE84032
S1131500A44663449A400243EFE7C046FE0300004A
S11315101D0400003304000013040000FFFFFF7FDC
S1131520EDFBFFFF70B5002830D0C317C4185C4032
S1131530C50F200000F076F8174B184A1B1AD21A70
S11315401F2A18DD164AD21A9440002224035B0590
S1131550240B5B0D0021100024030A0D240B12053B
S11315602243104C1B05224013435B00ED075B082C
S11315702B43190070BD210091400A000B21081A69
S1131580C4405B052403240B5B0DE3E70025002323
S113159000240022DEE7C0461E04000033040000DD
S11315A013040000FFFF0F808446101C62468C4623
S11315B0191C634600E0C0461FB500F0EFF8002890
S11315C001D40021C8421FBD10B500F049F84042C3
S11315D0013010BD10B500F0E1F8002801DB002057
S11315E010BD012010BDC04610B500F0D7F800288A
S11315F001DD002010BD012010BDC04610B500F073
S113160069F8002801DC002010BD012010BDC0468F
S113161010B500F05FF8002801DA002010BD0120A9
S113162010BDC0461C2101231B04984201D3000CA9
S113163010391B0A984201D3000A08391B09984241
S113164001D30009043902A2105C40187047C04657
S11316500403020201010101000000000000000077
S1131660F0B54F464646D6465C00C0B51F03DB0FB7
S11316709A46174B0E034D0084468046360B6D0D7B
S1131680C90F91463F0B640D01209D4208D09C4236
S113169001D0A5420BD01CBC90469946A246F0BD91
S11316A063463343F7D1AC42F5D13A43F3D1012039
S11316B0BE42F0D1C845EED1514507D0002DEAD144
S11316C063461E433000461EB041E4E70020E2E7D3
S11316D0FF070000F0B54546DE4657464E46E0B5E6
S11316E01F033D0B2C4F0E034C00AB465D0084469C
S11316F0360B640DC90F90466D0DDB0FBC422AD02A
S1131700254FBD422DD0002C0FD130430700814618
S113171078427841C0B2002D17D15F463A4314D1C4
S11317204B460020002B0AD006E0002D02D158467B
S1131730024301D0994218D04842012108433CBCDD
S113174090469946A246AB46F0BD0028F2D001204F
S1131750013B1843F3E737000743D1D0022040424E
S1131760EDE75F461743CED0F8E7AC42E4DC03DA9A
S1131770481E01210843E2E75E45DDD806D000207B
S11317805E45DCD20123481E1843D8E7C445D3D8AC
S11317900020C445F6D3D2E7FF070000F0B54E465B
S11317A04546DE4657465C00E0B51F03DB0F99460D
S11317B02A4B0E034D00C90F8446360B6D0D8B4624
S11317C090463F0B640D9D4220D0244B9C4222D076
S11317D0002D12D1304343424341DBB2002C1FD0D1
S11317E0002B0CD04B460120013B034318003CBCAA
S11317F090469946A246AB46F0BD002C16D0CB4588
S113180017D05B46594201230B43EFE73100022313
S11318100143EBD1D9E7390002231143E6D1D7E7DD
S11318203A43DDD100230028E0D0EAE73A43E6D189
S1131830E7E7A542E5DC05DBBE42E2D807D000239A
S1131840BE42D3D25946012301390B43CEE7C445E6
S1131850D7D80023C445F5D3C8E7C046FF07000026
S113186070B500260C4D0D4C641BA410A64209D182
S1131870002600F049F80A4D0A4C641BA410A64245
S113188005D170BDB300EB5898470136EEE7B300BD
S1131890EB5898470136F2E71419000014190000B8
S11318A014190000181900006A06000066060000FA
S11318B066060000C8060000C80600007E06000098
S11318C07006000084060000B60600005007000001
S11318D03007000030070000BC070000420700008A
S11318E05E070000340700006C070000AC0700002E
S11318F048454C4C4F000000776F726C64202020E8
S11319003078324100000000F8B5C046F8BC08BC8D
S11319109E467047DD000000F8B5C046F8BC08BC20
S10B19209E467047B50000006B
S10F1928401F0000080000000100000047
S9030BC928
